{"abi":[{"type":"constructor","inputs":[],"stateMutability":"nonpayable"},{"type":"function","name":"getLevel","inputs":[{"name":"account","type":"address","internalType":"address"}],"outputs":[{"name":"","type":"uint8","internalType":"enum MercaKYC.KYCLevel"}],"stateMutability":"view"},{"type":"function","name":"isMerchantVerified","inputs":[{"name":"account","type":"address","internalType":"address"}],"outputs":[{"name":"","type":"bool","internalType":"bool"}],"stateMutability":"view"},{"type":"function","name":"isVerified","inputs":[{"name":"account","type":"address","internalType":"address"}],"outputs":[{"name":"","type":"bool","internalType":"bool"}],"stateMutability":"view"},{"type":"function","name":"operators","inputs":[{"name":"","type":"address","internalType":"address"}],"outputs":[{"name":"","type":"bool","internalType":"bool"}],"stateMutability":"view"},{"type":"function","name":"owner","inputs":[],"outputs":[{"name":"","type":"address","internalType":"address"}],"stateMutability":"view"},{"type":"function","name":"pause","inputs":[],"outputs":[],"stateMutability":"nonpayable"},{"type":"function","name":"paused","inputs":[],"outputs":[{"name":"","type":"bool","internalType":"bool"}],"stateMutability":"view"},{"type":"function","name":"records","inputs":[{"name":"","type":"address","internalType":"address"}],"outputs":[{"name":"level","type":"uint8","internalType":"enum MercaKYC.KYCLevel"},{"name":"verifiedAt","type":"uint256","internalType":"uint256"},{"name":"expiresAt","type":"uint256","internalType":"uint256"},{"name":"suspended","type":"bool","internalType":"bool"}],"stateMutability":"view"},{"type":"function","name":"renounceOwnership","inputs":[],"outputs":[],"stateMutability":"nonpayable"},{"type":"function","name":"revokeAddress","inputs":[{"name":"account","type":"address","internalType":"address"}],"outputs":[],"stateMutability":"nonpayable"},{"type":"function","name":"setOperator","inputs":[{"name":"operator","type":"address","internalType":"address"},{"name":"approved","type":"bool","internalType":"bool"}],"outputs":[],"stateMutability":"nonpayable"},{"type":"function","name":"setSuspended","inputs":[{"name":"account","type":"address","internalType":"address"},{"name":"suspended","type":"bool","internalType":"bool"}],"outputs":[],"stateMutability":"nonpayable"},{"type":"function","name":"transferOwnership","inputs":[{"name":"newOwner","type":"address","internalType":"address"}],"outputs":[],"stateMutability":"nonpayable"},{"type":"function","name":"unpause","inputs":[],"outputs":[],"stateMutability":"nonpayable"},{"type":"function","name":"verifyAddress","inputs":[{"name":"account","type":"address","internalType":"address"},{"name":"level","type":"uint8","internalType":"enum MercaKYC.KYCLevel"},{"name":"expiresAt","type":"uint256","internalType":"uint256"}],"outputs":[],"stateMutability":"nonpayable"},{"type":"function","name":"verifyBatch","inputs":[{"name":"accounts","type":"address[]","internalType":"address[]"},{"name":"level","type":"uint8","internalType":"enum MercaKYC.KYCLevel"},{"name":"expiresAt","type":"uint256","internalType":"uint256"}],"outputs":[],"stateMutability":"nonpayable"},{"type":"event","name":"AddressRevoked","inputs":[{"name":"account","type":"address","indexed":true,"internalType":"address"}],"anonymous":false},{"type":"event","name":"AddressSuspended","inputs":[{"name":"account","type":"address","indexed":true,"internalType":"address"},{"name":"suspended","type":"bool","indexed":false,"internalType":"bool"}],"anonymous":false},{"type":"event","name":"AddressVerified","inputs":[{"name":"account","type":"address","indexed":true,"internalType":"address"},{"name":"level","type":"uint8","indexed":false,"internalType":"enum MercaKYC.KYCLevel"},{"name":"expiresAt","type":"uint256","indexed":false,"internalType":"uint256"}],"anonymous":false},{"type":"event","name":"OperatorSet","inputs":[{"name":"operator","type":"address","indexed":true,"internalType":"address"},{"name":"approved","type":"bool","indexed":false,"internalType":"bool"}],"anonymous":false},{"type":"event","name":"OwnershipTransferred","inputs":[{"name":"previousOwner","type":"address","indexed":true,"internalType":"address"},{"name":"newOwner","type":"address","indexed":true,"internalType":"address"}],"anonymous":false},{"type":"event","name":"Paused","inputs":[{"name":"account","type":"address","indexed":false,"internalType":"address"}],"anonymous":false},{"type":"event","name":"Unpaused","inputs":[{"name":"account","type":"address","indexed":false,"internalType":"address"}],"anonymous":false},{"type":"error","name":"AlreadyVerified","inputs":[{"name":"account","type":"address","internalType":"address"}]},{"type":"error","name":"EnforcedPause","inputs":[]},{"type":"error","name":"ExpectedPause","inputs":[]},{"type":"error","name":"NotOperator","inputs":[]},{"type":"error","name":"NotVerified","inputs":[{"name":"account","type":"address","internalType":"address"}]},{"type":"error","name":"OwnableInvalidOwner","inputs":[{"name":"owner","type":"address","internalType":"address"}]},{"type":"error","name":"OwnableUnauthorizedAccount","inputs":[{"name":"account","type":"address","internalType":"address"}]}],"bytecode":{"object":"0x608060405234801561000f575f5ffd5b50335f73ffffffffffffffffffffffffffffffffffffffff168173ffffffffffffffffffffffffffffffffffffffff1603610081575f6040517f1e4fbdf700000000000000000000000000000000000000000000000000000000815260040161007891906101eb565b60405180910390fd5b610090816100eb60201b60201c565b50600160025f3373ffffffffffffffffffffffffffffffffffffffff1673ffffffffffffffffffffffffffffffffffffffff1681526020019081526020015f205f6101000a81548160ff021916908315150217905550610204565b5f5f5f9054906101000a900473ffffffffffffffffffffffffffffffffffffffff169050815f5f6101000a81548173ffffffffffffffffffffffffffffffffffffffff021916908373ffffffffffffffffffffffffffffffffffffffff1602179055508173ffffffffffffffffffffffffffffffffffffffff168173ffffffffffffffffffffffffffffffffffffffff167f8be0079c531659141344cd1fd0a4f28419497f9722a3daafe3b4186f6b6457e060405160405180910390a35050565b5f73ffffffffffffffffffffffffffffffffffffffff82169050919050565b5f6101d5826101ac565b9050919050565b6101e5816101cb565b82525050565b5f6020820190506101fe5f8301846101dc565b92915050565b6114d3806102115f395ff3fe608060405234801561000f575f5ffd5b50600436106100fe575f3560e01c80635f72155f116100955780638807eaa3116100645780638807eaa3146102715780638da5cb5b1461028d578063b9209e33146102ab578063f2fde38b146102db576100fe565b80635f72155f14610211578063715018a61461022d578063817c8966146102375780638456cb5914610267576100fe565b80633f4ba83a116100d15780633f4ba83a1461019a578063469e9067146101a4578063558a7297146101d75780635c975abb146101f3576100fe565b806313e7c9d8146101025780632003f60c146101325780632e5a8a1414610162578063317a7aec1461017e575b5f5ffd5b61011c60048036038101906101179190611105565b6102f7565b604051610129919061114a565b60405180910390f35b61014c60048036038101906101479190611105565b610314565b604051610159919061114a565b60405180910390f35b61017c600480360381019061017791906111b9565b610327565b005b61019860048036038101906101939190611105565b61051a565b005b6101a2610694565b005b6101be60048036038101906101b99190611105565b6106a6565b6040516101ce949392919061128b565b60405180910390f35b6101f160048036038101906101ec91906112f8565b6106ea565b005b6101fb610798565b604051610208919061114a565b60405180910390f35b61022b600480360381019061022691906112f8565b6107ad565b005b610235610917565b005b610251600480360381019061024c9190611105565b61092a565b60405161025e9190611336565b60405180910390f35b61026f610a0b565b005b61028b600480360381019061028691906113b0565b610a1d565b005b610295610c7d565b6040516102a29190611430565b60405180910390f35b6102c560048036038101906102c09190611105565b610ca4565b6040516102d2919061114a565b60405180910390f35b6102f560048036038101906102f09190611105565b610cb7565b005b6002602052805f5260405f205f915054906101000a900460ff1681565b5f610320826002610d3b565b9050919050565b60025f3373ffffffffffffffffffffffffffffffffffffffff1673ffffffffffffffffffffffffffffffffffffffff1681526020019081526020015f205f9054906101000a900460ff161580156103b15750610381610c7d565b73ffffffffffffffffffffffffffffffffffffffff163373ffffffffffffffffffffffffffffffffffffffff1614155b156103e8576040517f7c214f0400000000000000000000000000000000000000000000000000000000815260040160405180910390fd5b6103f0610e10565b604051806080016040528083600281111561040e5761040d611209565b5b81526020014281526020018281526020015f151581525060015f8573ffffffffffffffffffffffffffffffffffffffff1673ffffffffffffffffffffffffffffffffffffffff1681526020019081526020015f205f820151815f015f6101000a81548160ff0219169083600281111561048a57610489611209565b5b021790555060208201518160010155604082015181600201556060820151816003015f6101000a81548160ff0219169083151502179055509050508273ffffffffffffffffffffffffffffffffffffffff167fbbc85a682a8ad13d19a34dfafabb021a7082a838dd9d23613bbfc07e0130b223838360405161050d929190611449565b60405180910390a2505050565b60025f3373ffffffffffffffffffffffffffffffffffffffff1673ffffffffffffffffffffffffffffffffffffffff1681526020019081526020015f205f9054906101000a900460ff161580156105a45750610574610c7d565b73ffffffffffffffffffffffffffffffffffffffff163373ffffffffffffffffffffffffffffffffffffffff1614155b156105db576040517f7c214f0400000000000000000000000000000000000000000000000000000000815260040160405180910390fd5b60015f8273ffffffffffffffffffffffffffffffffffffffff1673ffffffffffffffffffffffffffffffffffffffff1681526020019081526020015f205f5f82015f6101000a81549060ff0219169055600182015f9055600282015f9055600382015f6101000a81549060ff021916905550508073ffffffffffffffffffffffffffffffffffffffff167fcfa8589ceda2a5bec43be74764b2bb81b142d8d082d3bb9ce6946ed2d7c6362360405160405180910390a250565b61069c610e51565b6106a4610ed8565b565b6001602052805f5260405f205f91509050805f015f9054906101000a900460ff1690806001015490806002015490806003015f9054906101000a900460ff16905084565b6106f2610e51565b8060025f8473ffffffffffffffffffffffffffffffffffffffff1673ffffffffffffffffffffffffffffffffffffffff1681526020019081526020015f205f6101000a81548160ff0219169083151502179055508173ffffffffffffffffffffffffffffffffffffffff167f1a594081ae893ab78e67d9b9e843547318164322d32c65369d78a96172d9dc8f8260405161078c919061114a565b60405180910390a25050565b5f5f60149054906101000a900460ff16905090565b60025f3373ffffffffffffffffffffffffffffffffffffffff1673ffffffffffffffffffffffffffffffffffffffff1681526020019081526020015f205f9054906101000a900460ff161580156108375750610807610c7d565b73ffffffffffffffffffffffffffffffffffffffff163373ffffffffffffffffffffffffffffffffffffffff1614155b1561086e576040517f7c214f0400000000000000000000000000000000000000000000000000000000815260040160405180910390fd5b8060015f8473ffffffffffffffffffffffffffffffffffffffff1673ffffffffffffffffffffffffffffffffffffffff1681526020019081526020015f206003015f6101000a81548160ff0219169083151502179055508173ffffffffffffffffffffffffffffffffffffffff167fcad4500b5763d491bb6b5c43f45df2fdc90f3f78ef5029c0b1f5e68c4103c6c68260405161090b919061114a565b60405180910390a25050565b61091f610e51565b6109285f610f39565b565b5f5f60015f8473ffffffffffffffffffffffffffffffffffffffff1673ffffffffffffffffffffffffffffffffffffffff1681526020019081526020015f2090505f600281111561097e5761097d611209565b5b815f015f9054906101000a900460ff1660028111156109a05761099f611209565b5b036109ae575f915050610a06565b806003015f9054906101000a900460ff16156109cd575f915050610a06565b5f8160020154141580156109e45750806002015442115b156109f2575f915050610a06565b805f015f9054906101000a900460ff169150505b919050565b610a13610e51565b610a1b610ffa565b565b60025f3373ffffffffffffffffffffffffffffffffffffffff1673ffffffffffffffffffffffffffffffffffffffff1681526020019081526020015f205f9054906101000a900460ff16158015610aa75750610a77610c7d565b73ffffffffffffffffffffffffffffffffffffffff163373ffffffffffffffffffffffffffffffffffffffff1614155b15610ade576040517f7c214f0400000000000000000000000000000000000000000000000000000000815260040160405180910390fd5b610ae6610e10565b5f5f90505b84849050811015610c76576040518060800160405280846002811115610b1457610b13611209565b5b81526020014281526020018381526020015f151581525060015f878785818110610b4157610b40611470565b5b9050602002016020810190610b569190611105565b73ffffffffffffffffffffffffffffffffffffffff1673ffffffffffffffffffffffffffffffffffffffff1681526020019081526020015f205f820151815f015f6101000a81548160ff02191690836002811115610bb757610bb6611209565b5b021790555060208201518160010155604082015181600201556060820151816003015f6101000a81548160ff021916908315150217905550905050848482818110610c0557610c04611470565b5b9050602002016020810190610c1a9190611105565b73ffffffffffffffffffffffffffffffffffffffff167fbbc85a682a8ad13d19a34dfafabb021a7082a838dd9d23613bbfc07e0130b2238484604051610c61929190611449565b60405180910390a28080600101915050610aeb565b5050505050565b5f5f5f9054906101000a900473ffffffffffffffffffffffffffffffffffffffff16905090565b5f610cb0826001610d3b565b9050919050565b610cbf610e51565b5f73ffffffffffffffffffffffffffffffffffffffff168173ffffffffffffffffffffffffffffffffffffffff1603610d2f575f6040517f1e4fbdf7000000000000000000000000000000000000000000000000000000008152600401610d269190611430565b60405180910390fd5b610d3881610f39565b50565b5f5f60015f8573ffffffffffffffffffffffffffffffffffffffff1673ffffffffffffffffffffffffffffffffffffffff1681526020019081526020015f209050826002811115610d8f57610d8e611209565b5b815f015f9054906101000a900460ff166002811115610db157610db0611209565b5b1015610dc0575f915050610e0a565b806003015f9054906101000a900460ff1615610ddf575f915050610e0a565b5f816002015414158015610df65750806002015442115b15610e04575f915050610e0a565b60019150505b92915050565b610e18610798565b15610e4f576040517fd93c066500000000000000000000000000000000000000000000000000000000815260040160405180910390fd5b565b610e5961105c565b73ffffffffffffffffffffffffffffffffffffffff16610e77610c7d565b73ffffffffffffffffffffffffffffffffffffffff1614610ed657610e9a61105c565b6040517f118cdaa7000000000000000000000000000000000000000000000000000000008152600401610ecd9190611430565b60405180910390fd5b565b610ee0611063565b5f5f60146101000a81548160ff0219169083151502179055507f5db9ee0a495bf2e6ff9c91a7834c1ba4fdd244a5e8aa4e537bd38aeae4b073aa610f2261105c565b604051610f2f9190611430565b60405180910390a1565b5f5f5f9054906101000a900473ffffffffffffffffffffffffffffffffffffffff169050815f5f6101000a81548173ffffffffffffffffffffffffffffffffffffffff021916908373ffffffffffffffffffffffffffffffffffffffff1602179055508173ffffffffffffffffffffffffffffffffffffffff168173ffffffffffffffffffffffffffffffffffffffff167f8be0079c531659141344cd1fd0a4f28419497f9722a3daafe3b4186f6b6457e060405160405180910390a35050565b611002610e10565b60015f60146101000a81548160ff0219169083151502179055507f62e78cea01bee320cd4e420270b5ea74000d11b0c9f74754ebdbfc544b05a25861104561105c565b6040516110529190611430565b60405180910390a1565b5f33905090565b61106b610798565b6110a1576040517f8dfc202b00000000000000000000000000000000000000000000000000000000815260040160405180910390fd5b565b5f5ffd5b5f5ffd5b5f73ffffffffffffffffffffffffffffffffffffffff82169050919050565b5f6110d4826110ab565b9050919050565b6110e4816110ca565b81146110ee575f5ffd5b50565b5f813590506110ff816110db565b92915050565b5f6020828403121561111a576111196110a3565b5b5f611127848285016110f1565b91505092915050565b5f8115159050919050565b61114481611130565b82525050565b5f60208201905061115d5f83018461113b565b92915050565b6003811061116f575f5ffd5b50565b5f8135905061118081611163565b92915050565b5f819050919050565b61119881611186565b81146111a2575f5ffd5b50565b5f813590506111b38161118f565b92915050565b5f5f5f606084860312156111d0576111cf6110a3565b5b5f6111dd868287016110f1565b93505060206111ee86828701611172565b92505060406111ff868287016111a5565b9150509250925092565b7f4e487b71000000000000000000000000000000000000000000000000000000005f52602160045260245ffd5b6003811061124757611246611209565b5b50565b5f81905061125782611236565b919050565b5f6112668261124a565b9050919050565b6112768161125c565b82525050565b61128581611186565b82525050565b5f60808201905061129e5f83018761126d565b6112ab602083018661127c565b6112b8604083018561127c565b6112c5606083018461113b565b95945050505050565b6112d781611130565b81146112e1575f5ffd5b50565b5f813590506112f2816112ce565b92915050565b5f5f6040838503121561130e5761130d6110a3565b5b5f61131b858286016110f1565b925050602061132c858286016112e4565b9150509250929050565b5f6020820190506113495f83018461126d565b92915050565b5f5ffd5b5f5ffd5b5f5ffd5b5f5f83601f8401126113705761136f61134f565b5b8235905067ffffffffffffffff81111561138d5761138c611353565b5b6020830191508360208202830111156113a9576113a8611357565b5b9250929050565b5f5f5f5f606085870312156113c8576113c76110a3565b5b5f85013567ffffffffffffffff8111156113e5576113e46110a7565b5b6113f18782880161135b565b9450945050602061140487828801611172565b9250506040611415878288016111a5565b91505092959194509250565b61142a816110ca565b82525050565b5f6020820190506114435f830184611421565b92915050565b5f60408201905061145c5f83018561126d565b611469602083018461127c565b9392505050565b7f4e487b71000000000000000000000000000000000000000000000000000000005f52603260045260245ffdfea264697066735822122036ddefe27766885c55553a2c50eaac73633343cd538ec302cb038690657fe6cb64736f6c63430008230033","linkReferences":{}},"methodIdentifiers":{"getLevel(address)":"817c8966","isMerchantVerified(address)":"2003f60c","isVerified(address)":"b9209e33","operators(address)":"13e7c9d8","owner()":"8da5cb5b","pause()":"8456cb59","paused()":"5c975abb","records(address)":"469e9067","renounceOwnership()":"715018a6","revokeAddress(address)":"317a7aec","setOperator(address,bool)":"558a7297","setSuspended(address,bool)":"5f72155f","transferOwnership(address)":"f2fde38b","unpause()":"3f4ba83a","verifyAddress(address,uint8,uint256)":"2e5a8a14","verifyBatch(address[],uint8,uint256)":"8807eaa3"},"id":37}