{"abi":[{"type":"constructor","inputs":[],"stateMutability":"nonpayable"},{"type":"function","name":"acceptedTokens","inputs":[{"name":"","type":"address","internalType":"address"}],"outputs":[{"name":"","type":"bool","internalType":"bool"}],"stateMutability":"view"},{"type":"function","name":"balances","inputs":[{"name":"","type":"address","internalType":"address"},{"name":"","type":"address","internalType":"address"},{"name":"","type":"uint256","internalType":"uint256"}],"outputs":[{"name":"","type":"uint256","internalType":"uint256"}],"stateMutability":"view"},{"type":"function","name":"createSubWallet","inputs":[{"name":"name","type":"string","internalType":"string"},{"name":"withdrawTo","type":"address","internalType":"address"}],"outputs":[{"name":"walletId","type":"uint256","internalType":"uint256"}],"stateMutability":"nonpayable"},{"type":"function","name":"deactivateSubWallet","inputs":[{"name":"walletId","type":"uint256","internalType":"uint256"},{"name":"token","type":"address","internalType":"address"}],"outputs":[],"stateMutability":"nonpayable"},{"type":"function","name":"getBalance","inputs":[{"name":"merchant","type":"address","internalType":"address"},{"name":"token","type":"address","internalType":"address"},{"name":"walletId","type":"uint256","internalType":"uint256"}],"outputs":[{"name":"","type":"uint256","internalType":"uint256"}],"stateMutability":"view"},{"type":"function","name":"getSubWallet","inputs":[{"name":"merchant","type":"address","internalType":"address"},{"name":"walletId","type":"uint256","internalType":"uint256"}],"outputs":[{"name":"","type":"tuple","internalType":"struct MercaWallet.SubWallet","components":[{"name":"name","type":"string","internalType":"string"},{"name":"withdrawTo","type":"address","internalType":"address"},{"name":"active","type":"bool","internalType":"bool"}]}],"stateMutability":"view"},{"type":"function","name":"getTotalBalance","inputs":[{"name":"merchant","type":"address","internalType":"address"},{"name":"token","type":"address","internalType":"address"}],"outputs":[{"name":"total","type":"uint256","internalType":"uint256"}],"stateMutability":"view"},{"type":"function","name":"moveBalance","inputs":[{"name":"token","type":"address","internalType":"address"},{"name":"fromWalletId","type":"uint256","internalType":"uint256"},{"name":"toWalletId","type":"uint256","internalType":"uint256"},{"name":"amount","type":"uint256","internalType":"uint256"}],"outputs":[],"stateMutability":"nonpayable"},{"type":"function","name":"owner","inputs":[],"outputs":[{"name":"","type":"address","internalType":"address"}],"stateMutability":"view"},{"type":"function","name":"pause","inputs":[],"outputs":[],"stateMutability":"nonpayable"},{"type":"function","name":"paused","inputs":[],"outputs":[{"name":"","type":"bool","internalType":"bool"}],"stateMutability":"view"},{"type":"function","name":"renounceOwnership","inputs":[],"outputs":[],"stateMutability":"nonpayable"},{"type":"function","name":"setAcceptedToken","inputs":[{"name":"token","type":"address","internalType":"address"},{"name":"accepted","type":"bool","internalType":"bool"}],"outputs":[],"stateMutability":"nonpayable"},{"type":"function","name":"setSettler","inputs":[{"name":"settler","type":"address","internalType":"address"},{"name":"approved","type":"bool","internalType":"bool"}],"outputs":[],"stateMutability":"nonpayable"},{"type":"function","name":"settle","inputs":[{"name":"merchant","type":"address","internalType":"address"},{"name":"token","type":"address","internalType":"address"},{"name":"walletId","type":"uint256","internalType":"uint256"},{"name":"amount","type":"uint256","internalType":"uint256"}],"outputs":[],"stateMutability":"nonpayable"},{"type":"function","name":"settlers","inputs":[{"name":"","type":"address","internalType":"address"}],"outputs":[{"name":"","type":"bool","internalType":"bool"}],"stateMutability":"view"},{"type":"function","name":"subWallets","inputs":[{"name":"","type":"address","internalType":"address"},{"name":"","type":"uint256","internalType":"uint256"}],"outputs":[{"name":"name","type":"string","internalType":"string"},{"name":"withdrawTo","type":"address","internalType":"address"},{"name":"active","type":"bool","internalType":"bool"}],"stateMutability":"view"},{"type":"function","name":"transferOwnership","inputs":[{"name":"newOwner","type":"address","internalType":"address"}],"outputs":[],"stateMutability":"nonpayable"},{"type":"function","name":"unpause","inputs":[],"outputs":[],"stateMutability":"nonpayable"},{"type":"function","name":"updateSubWallet","inputs":[{"name":"walletId","type":"uint256","internalType":"uint256"},{"name":"withdrawTo","type":"address","internalType":"address"}],"outputs":[],"stateMutability":"nonpayable"},{"type":"function","name":"walletCount","inputs":[{"name":"","type":"address","internalType":"address"}],"outputs":[{"name":"","type":"uint256","internalType":"uint256"}],"stateMutability":"view"},{"type":"function","name":"withdraw","inputs":[{"name":"token","type":"address","internalType":"address"},{"name":"walletId","type":"uint256","internalType":"uint256"},{"name":"amount","type":"uint256","internalType":"uint256"}],"outputs":[],"stateMutability":"nonpayable"},{"type":"event","name":"OwnershipTransferred","inputs":[{"name":"previousOwner","type":"address","indexed":true,"internalType":"address"},{"name":"newOwner","type":"address","indexed":true,"internalType":"address"}],"anonymous":false},{"type":"event","name":"Paused","inputs":[{"name":"account","type":"address","indexed":false,"internalType":"address"}],"anonymous":false},{"type":"event","name":"Settled","inputs":[{"name":"merchant","type":"address","indexed":true,"internalType":"address"},{"name":"token","type":"address","indexed":true,"internalType":"address"},{"name":"walletId","type":"uint256","indexed":true,"internalType":"uint256"},{"name":"amount","type":"uint256","indexed":false,"internalType":"uint256"},{"name":"settler","type":"address","indexed":false,"internalType":"address"}],"anonymous":false},{"type":"event","name":"SettlerSet","inputs":[{"name":"settler","type":"address","indexed":true,"internalType":"address"},{"name":"approved","type":"bool","indexed":false,"internalType":"bool"}],"anonymous":false},{"type":"event","name":"SubWalletCreated","inputs":[{"name":"merchant","type":"address","indexed":true,"internalType":"address"},{"name":"walletId","type":"uint256","indexed":false,"internalType":"uint256"},{"name":"name","type":"string","indexed":false,"internalType":"string"},{"name":"withdrawTo","type":"address","indexed":false,"internalType":"address"}],"anonymous":false},{"type":"event","name":"SubWalletDeactivated","inputs":[{"name":"merchant","type":"address","indexed":true,"internalType":"address"},{"name":"walletId","type":"uint256","indexed":false,"internalType":"uint256"}],"anonymous":false},{"type":"event","name":"SubWalletUpdated","inputs":[{"name":"merchant","type":"address","indexed":true,"internalType":"address"},{"name":"walletId","type":"uint256","indexed":false,"internalType":"uint256"},{"name":"withdrawTo","type":"address","indexed":false,"internalType":"address"}],"anonymous":false},{"type":"event","name":"TokenSet","inputs":[{"name":"token","type":"address","indexed":true,"internalType":"address"},{"name":"accepted","type":"bool","indexed":false,"internalType":"bool"}],"anonymous":false},{"type":"event","name":"Unpaused","inputs":[{"name":"account","type":"address","indexed":false,"internalType":"address"}],"anonymous":false},{"type":"event","name":"Withdrawn","inputs":[{"name":"merchant","type":"address","indexed":true,"internalType":"address"},{"name":"token","type":"address","indexed":true,"internalType":"address"},{"name":"walletId","type":"uint256","indexed":true,"internalType":"uint256"},{"name":"amount","type":"uint256","indexed":false,"internalType":"uint256"},{"name":"to","type":"address","indexed":false,"internalType":"address"}],"anonymous":false},{"type":"error","name":"EnforcedPause","inputs":[]},{"type":"error","name":"ExpectedPause","inputs":[]},{"type":"error","name":"InsufficientBalance","inputs":[{"name":"available","type":"uint256","internalType":"uint256"},{"name":"requested","type":"uint256","internalType":"uint256"}]},{"type":"error","name":"InvalidAmount","inputs":[]},{"type":"error","name":"NotMerchant","inputs":[]},{"type":"error","name":"NotSettler","inputs":[]},{"type":"error","name":"OwnableInvalidOwner","inputs":[{"name":"owner","type":"address","internalType":"address"}]},{"type":"error","name":"OwnableUnauthorizedAccount","inputs":[{"name":"account","type":"address","internalType":"address"}]},{"type":"error","name":"ReentrancyGuardReentrantCall","inputs":[]},{"type":"error","name":"SafeERC20FailedOperation","inputs":[{"name":"token","type":"address","internalType":"address"}]},{"type":"error","name":"TokenNotAccepted","inputs":[{"name":"token","type":"address","internalType":"address"}]},{"type":"error","name":"WalletInactive","inputs":[{"name":"walletId","type":"uint256","internalType":"uint256"}]},{"type":"error","name":"WalletNotFound","inputs":[{"name":"walletId","type":"uint256","internalType":"uint256"}]}],"bytecode":{"object":"0x608060405234801561000f575f5ffd5b50335f73ffffffffffffffffffffffffffffffffffffffff168173ffffffffffffffffffffffffffffffffffffffff1603610081575f6040517f1e4fbdf700000000000000000000000000000000000000000000000000000000815260040161007891906101ec565b60405180910390fd5b610090816100ba60201b60201c565b5060016100af6100a461017b60201b60201c565b6101a460201b60201c565b5f0181905550610205565b5f5f5f9054906101000a900473ffffffffffffffffffffffffffffffffffffffff169050815f5f6101000a81548173ffffffffffffffffffffffffffffffffffffffff021916908373ffffffffffffffffffffffffffffffffffffffff1602179055508173ffffffffffffffffffffffffffffffffffffffff168173ffffffffffffffffffffffffffffffffffffffff167f8be0079c531659141344cd1fd0a4f28419497f9722a3daafe3b4186f6b6457e060405160405180910390a35050565b5f7f9b779b17422d0df92223018b32b4d1fa46e071723d6817e2486d003becc55f005f1b905090565b5f819050919050565b5f73ffffffffffffffffffffffffffffffffffffffff82169050919050565b5f6101d6826101ad565b9050919050565b6101e6816101cc565b82525050565b5f6020820190506101ff5f8301846101dd565b92915050565b612b02806102125f395ff3fe608060405234801561000f575f5ffd5b5060043610610140575f3560e01c80638da5cb5b116100b6578063c70a900f1161007a578063c70a900f1461034a578063c997dbca1461037a578063d801b81214610396578063e049bb3d146103c8578063e904a960146103f8578063f2fde38b1461041457610140565b80638da5cb5b146102a8578063a5b1e13d146102c6578063a7e0122e146102e2578063ac05452a14610312578063b5c5f6721461032e57610140565b80636b942b86116101085780636b942b86146101fc578063715018a61461022c57806377a3546514610236578063789c3de11461025257806382dc4a051461026e5780638456cb591461029e57610140565b80633f4ba83a1461014457806344c4be2b1461014e57806351bd551f1461017e5780635c975abb146101ae57806361e5f354146101cc575b5f5ffd5b61014c610430565b005b61016860048036038101906101639190612089565b610442565b60405161017591906121ad565b60405180910390f35b610198600480360381019061019391906121cd565b6105a8565b6040516101a5919061221a565b60405180910390f35b6101b66106a1565b6040516101c39190612242565b60405180910390f35b6101e660048036038101906101e1919061225b565b6106b6565b6040516101f3919061221a565b60405180910390f35b6102166004803603810190610211919061225b565b610748565b604051610223919061221a565b60405180910390f35b610234610773565b005b610250600480360381019061024b91906122d5565b610786565b005b61026c60048036038101906102679190612313565b610834565b005b61028860048036038101906102839190612351565b610a42565b6040516102959190612242565b60405180910390f35b6102a6610a5f565b005b6102b0610a71565b6040516102bd919061238b565b60405180910390f35b6102e060048036038101906102db91906123a4565b610a98565b005b6102fc60048036038101906102f79190612351565b610e55565b604051610309919061221a565b60405180910390f35b61032c60048036038101906103279190612408565b610e6a565b005b6103486004803603810190610343919061246c565b6111c3565b005b610364600480360381019061035f9190612351565b611530565b6040516103719190612242565b60405180910390f35b610394600480360381019061038f91906122d5565b61154d565b005b6103b060048036038101906103ab9190612089565b6115fb565b6040516103bf93929190612504565b60405180910390f35b6103e260048036038101906103dd91906125a1565b6116de565b6040516103ef919061221a565b60405180910390f35b610412600480360381019061040d9190612313565b61173e565b005b61042e60048036038101906104299190612351565b611877565b005b6104386118fb565b610440611982565b565b61044a611fbd565b60025f8473ffffffffffffffffffffffffffffffffffffffff1673ffffffffffffffffffffffffffffffffffffffff1681526020019081526020015f205f8381526020019081526020015f206040518060600160405290815f820180546104b09061262b565b80601f01602080910402602001604051908101604052809291908181526020018280546104dc9061262b565b80156105275780601f106104fe57610100808354040283529160200191610527565b820191905f5260205f20905b81548152906001019060200180831161050a57829003601f168201915b50505050508152602001600182015f9054906101000a900473ffffffffffffffffffffffffffffffffffffffff1673ffffffffffffffffffffffffffffffffffffffff1673ffffffffffffffffffffffffffffffffffffffff1681526020016001820160149054906101000a900460ff161515151581525050905092915050565b5f5f60035f8573ffffffffffffffffffffffffffffffffffffffff1673ffffffffffffffffffffffffffffffffffffffff1681526020019081526020015f205490505f5f90505b818110156106995760015f8673ffffffffffffffffffffffffffffffffffffffff1673ffffffffffffffffffffffffffffffffffffffff1681526020019081526020015f205f8573ffffffffffffffffffffffffffffffffffffffff1673ffffffffffffffffffffffffffffffffffffffff1681526020019081526020015f205f8281526020019081526020015f20548361068a9190612688565b925080806001019150506105ef565b505092915050565b5f5f60149054906101000a900460ff16905090565b5f60015f8573ffffffffffffffffffffffffffffffffffffffff1673ffffffffffffffffffffffffffffffffffffffff1681526020019081526020015f205f8473ffffffffffffffffffffffffffffffffffffffff1673ffffffffffffffffffffffffffffffffffffffff1681526020019081526020015f205f8381526020019081526020015f205490509392505050565b6001602052825f5260405f20602052815f5260405f20602052805f5260405f205f9250925050505481565b61077b6118fb565b6107845f6119e3565b565b61078e6118fb565b8060045f8473ffffffffffffffffffffffffffffffffffffffff1673ffffffffffffffffffffffffffffffffffffffff1681526020019081526020015f205f6101000a81548160ff0219169083151502179055508173ffffffffffffffffffffffffffffffffffffffff167fbfa6acf022b8bc9f4df4ed4ce022b7d18db613e8a4864052b907aac9a7521b13826040516108289190612242565b60405180910390a25050565b5f60015f3373ffffffffffffffffffffffffffffffffffffffff1673ffffffffffffffffffffffffffffffffffffffff1681526020019081526020015f205f8373ffffffffffffffffffffffffffffffffffffffff1673ffffffffffffffffffffffffffffffffffffffff1681526020019081526020015f205f8481526020019081526020015f20541115610989575f60015f3373ffffffffffffffffffffffffffffffffffffffff1673ffffffffffffffffffffffffffffffffffffffff1681526020019081526020015f205f8373ffffffffffffffffffffffffffffffffffffffff1673ffffffffffffffffffffffffffffffffffffffff1681526020019081526020015f205f8481526020019081526020015f20546040517fcf4791810000000000000000000000000000000000000000000000000000000081526004016109809291906126fd565b60405180910390fd5b5f60025f3373ffffffffffffffffffffffffffffffffffffffff1673ffffffffffffffffffffffffffffffffffffffff1681526020019081526020015f205f8481526020019081526020015f2060010160146101000a81548160ff0219169083151502179055503373ffffffffffffffffffffffffffffffffffffffff167f42f60d86ec8b72876566b7304a4c1fa39de9e92971c8abb2f63f93ba8bd0e3a783604051610a36919061221a565b60405180910390a25050565b6005602052805f5260405f205f915054906101000a900460ff1681565b610a676118fb565b610a6f611aa4565b565b5f5f5f9054906101000a900473ffffffffffffffffffffffffffffffffffffffff16905090565b610aa0611b06565b610aa8611b28565b60045f3373ffffffffffffffffffffffffffffffffffffffff1673ffffffffffffffffffffffffffffffffffffffff1681526020019081526020015f205f9054906101000a900460ff16610b28576040517f05b9433300000000000000000000000000000000000000000000000000000000815260040160405180910390fd5b60055f8473ffffffffffffffffffffffffffffffffffffffff1673ffffffffffffffffffffffffffffffffffffffff1681526020019081526020015f205f9054906101000a900460ff16610bb357826040517ff01157c3000000000000000000000000000000000000000000000000000000008152600401610baa919061238b565b60405180910390fd5b5f8103610bec576040517f2c5211c600000000000000000000000000000000000000000000000000000000815260040160405180910390fd5b5f60035f8673ffffffffffffffffffffffffffffffffffffffff1673ffffffffffffffffffffffffffffffffffffffff1681526020019081526020015f205403610c7257610c70846040518060400160405280600781526020017f64656661756c740000000000000000000000000000000000000000000000000081525086611b69565b505b5f60025f8673ffffffffffffffffffffffffffffffffffffffff1673ffffffffffffffffffffffffffffffffffffffff1681526020019081526020015f205f8481526020019081526020015f2090508060010160149054906101000a900460ff16610d1457826040517f54e3b021000000000000000000000000000000000000000000000000000000008152600401610d0b919061221a565b60405180910390fd5b610d413330848773ffffffffffffffffffffffffffffffffffffffff16611d52909392919063ffffffff16565b8160015f8773ffffffffffffffffffffffffffffffffffffffff1673ffffffffffffffffffffffffffffffffffffffff1681526020019081526020015f205f8673ffffffffffffffffffffffffffffffffffffffff1673ffffffffffffffffffffffffffffffffffffffff1681526020019081526020015f205f8581526020019081526020015f205f828254610dd79190612688565b92505081905550828473ffffffffffffffffffffffffffffffffffffffff168673ffffffffffffffffffffffffffffffffffffffff167f56eb1547e3c9a2a32ecb362e4a2d370780ce85988e4a3e187a68dcedd62e59958533604051610e3e929190612724565b60405180910390a450610e4f611da7565b50505050565b6003602052805f5260405f205f915090505481565b5f60025f3373ffffffffffffffffffffffffffffffffffffffff1673ffffffffffffffffffffffffffffffffffffffff1681526020019081526020015f205f8581526020019081526020015f2090505f60025f3373ffffffffffffffffffffffffffffffffffffffff1673ffffffffffffffffffffffffffffffffffffffff1681526020019081526020015f205f8581526020019081526020015f2090508160010160149054906101000a900460ff16610f5b57846040517f54e3b021000000000000000000000000000000000000000000000000000000008152600401610f52919061221a565b60405180910390fd5b8060010160149054906101000a900460ff16610fae57836040517f54e3b021000000000000000000000000000000000000000000000000000000008152600401610fa5919061221a565b60405180910390fd5b5f60015f3373ffffffffffffffffffffffffffffffffffffffff1673ffffffffffffffffffffffffffffffffffffffff1681526020019081526020015f205f8873ffffffffffffffffffffffffffffffffffffffff1673ffffffffffffffffffffffffffffffffffffffff1681526020019081526020015f205f8781526020019081526020015f20549050838110156110805780846040517fcf47918100000000000000000000000000000000000000000000000000000000815260040161107792919061274b565b60405180910390fd5b8360015f3373ffffffffffffffffffffffffffffffffffffffff1673ffffffffffffffffffffffffffffffffffffffff1681526020019081526020015f205f8973ffffffffffffffffffffffffffffffffffffffff1673ffffffffffffffffffffffffffffffffffffffff1681526020019081526020015f205f8881526020019081526020015f205f8282546111169190612772565b925050819055508360015f3373ffffffffffffffffffffffffffffffffffffffff1673ffffffffffffffffffffffffffffffffffffffff1681526020019081526020015f205f8973ffffffffffffffffffffffffffffffffffffffff1673ffffffffffffffffffffffffffffffffffffffff1681526020019081526020015f205f8781526020019081526020015f205f8282546111b39190612688565b9250508190555050505050505050565b6111cb611b06565b6111d3611b28565b5f60025f3373ffffffffffffffffffffffffffffffffffffffff1673ffffffffffffffffffffffffffffffffffffffff1681526020019081526020015f205f8481526020019081526020015f2090508060010160149054906101000a900460ff1661127557826040517f54e3b02100000000000000000000000000000000000000000000000000000000815260040161126c919061221a565b60405180910390fd5b5f60015f3373ffffffffffffffffffffffffffffffffffffffff1673ffffffffffffffffffffffffffffffffffffffff1681526020019081526020015f205f8673ffffffffffffffffffffffffffffffffffffffff1673ffffffffffffffffffffffffffffffffffffffff1681526020019081526020015f205f8581526020019081526020015f205490507fffffffffffffffffffffffffffffffffffffffffffffffffffffffffffffffff830361132b578092505b5f8303611364576040517f2c5211c600000000000000000000000000000000000000000000000000000000815260040160405180910390fd5b828110156113ab5780836040517fcf4791810000000000000000000000000000000000000000000000000000000081526004016113a292919061274b565b60405180910390fd5b8260015f3373ffffffffffffffffffffffffffffffffffffffff1673ffffffffffffffffffffffffffffffffffffffff1681526020019081526020015f205f8773ffffffffffffffffffffffffffffffffffffffff1673ffffffffffffffffffffffffffffffffffffffff1681526020019081526020015f205f8681526020019081526020015f205f8282546114419190612772565b92505081905550611496826001015f9054906101000a900473ffffffffffffffffffffffffffffffffffffffff16848773ffffffffffffffffffffffffffffffffffffffff16611dc19092919063ffffffff16565b838573ffffffffffffffffffffffffffffffffffffffff163373ffffffffffffffffffffffffffffffffffffffff167f9f66b52a752a366400b38ea6e14b5e7345b54822a0c3094a55aa5d426badf12586866001015f9054906101000a900473ffffffffffffffffffffffffffffffffffffffff16604051611519929190612724565b60405180910390a4505061152b611da7565b505050565b6004602052805f5260405f205f915054906101000a900460ff1681565b6115556118fb565b8060055f8473ffffffffffffffffffffffffffffffffffffffff1673ffffffffffffffffffffffffffffffffffffffff1681526020019081526020015f205f6101000a81548160ff0219169083151502179055508173ffffffffffffffffffffffffffffffffffffffff167f033b55419a2dba027908fbe5a221c7df98500387bfc5bef4cbfb1e276264d205826040516115ef9190612242565b60405180910390a25050565b6002602052815f5260405f20602052805f5260405f205f9150915050805f0180546116259061262b565b80601f01602080910402602001604051908101604052809291908181526020018280546116519061262b565b801561169c5780601f106116735761010080835404028352916020019161169c565b820191905f5260205f20905b81548152906001019060200180831161167f57829003601f168201915b505050505090806001015f9054906101000a900473ffffffffffffffffffffffffffffffffffffffff16908060010160149054906101000a900460ff16905083565b5f6116e7611b28565b6117353385858080601f0160208091040260200160405190810160405280939291908181526020018383808284375f81840152601f19601f8201169050808301925050505050505084611b69565b90509392505050565b5f60025f3373ffffffffffffffffffffffffffffffffffffffff1673ffffffffffffffffffffffffffffffffffffffff1681526020019081526020015f205f8481526020019081526020015f2090508060010160149054906101000a900460ff166117e057826040517f54e3b0210000000000000000000000000000000000000000000000000000000081526004016117d7919061221a565b60405180910390fd5b81816001015f6101000a81548173ffffffffffffffffffffffffffffffffffffffff021916908373ffffffffffffffffffffffffffffffffffffffff1602179055503373ffffffffffffffffffffffffffffffffffffffff167ffa27087d32944d5071b8f591d1ecef49ab79d89b817c8c3827fe895fda045352848460405161186a929190612724565b60405180910390a2505050565b61187f6118fb565b5f73ffffffffffffffffffffffffffffffffffffffff168173ffffffffffffffffffffffffffffffffffffffff16036118ef575f6040517f1e4fbdf70000000000000000000000000000000000000000000000000000000081526004016118e6919061238b565b60405180910390fd5b6118f8816119e3565b50565b611903611e14565b73ffffffffffffffffffffffffffffffffffffffff16611921610a71565b73ffffffffffffffffffffffffffffffffffffffff161461198057611944611e14565b6040517f118cdaa7000000000000000000000000000000000000000000000000000000008152600401611977919061238b565b60405180910390fd5b565b61198a611e1b565b5f5f60146101000a81548160ff0219169083151502179055507f5db9ee0a495bf2e6ff9c91a7834c1ba4fdd244a5e8aa4e537bd38aeae4b073aa6119cc611e14565b6040516119d9919061238b565b60405180910390a1565b5f5f5f9054906101000a900473ffffffffffffffffffffffffffffffffffffffff169050815f5f6101000a81548173ffffffffffffffffffffffffffffffffffffffff021916908373ffffffffffffffffffffffffffffffffffffffff1602179055508173ffffffffffffffffffffffffffffffffffffffff168173ffffffffffffffffffffffffffffffffffffffff167f8be0079c531659141344cd1fd0a4f28419497f9722a3daafe3b4186f6b6457e060405160405180910390a35050565b611aac611b28565b60015f60146101000a81548160ff0219169083151502179055507f62e78cea01bee320cd4e420270b5ea74000d11b0c9f74754ebdbfc544b05a258611aef611e14565b604051611afc919061238b565b60405180910390a1565b611b0e611e5b565b6002611b20611b1b611e9c565b611ec5565b5f0181905550565b611b306106a1565b15611b67576040517fd93c066500000000000000000000000000000000000000000000000000000000815260040160405180910390fd5b565b5f60035f8573ffffffffffffffffffffffffffffffffffffffff1673ffffffffffffffffffffffffffffffffffffffff1681526020019081526020015f2054905060405180606001604052808481526020018373ffffffffffffffffffffffffffffffffffffffff1681526020016001151581525060025f8673ffffffffffffffffffffffffffffffffffffffff1673ffffffffffffffffffffffffffffffffffffffff1681526020019081526020015f205f8381526020019081526020015f205f820151815f019081611c3d919061297a565b506020820151816001015f6101000a81548173ffffffffffffffffffffffffffffffffffffffff021916908373ffffffffffffffffffffffffffffffffffffffff16021790555060408201518160010160146101000a81548160ff02191690831515021790555090505060035f8573ffffffffffffffffffffffffffffffffffffffff1673ffffffffffffffffffffffffffffffffffffffff1681526020019081526020015f205f815480929190611cf490612a49565b91905055508373ffffffffffffffffffffffffffffffffffffffff167f57fa187b05d4900d9b1cdb46b324bb5ce03c272c195be862738b958f46a5c86d828585604051611d4393929190612a90565b60405180910390a29392505050565b611d60848484846001611ece565b611da157836040517f5274afe7000000000000000000000000000000000000000000000000000000008152600401611d98919061238b565b60405180910390fd5b50505050565b6001611db9611db4611e9c565b611ec5565b5f0181905550565b611dce8383836001611f3f565b611e0f57826040517f5274afe7000000000000000000000000000000000000000000000000000000008152600401611e06919061238b565b60405180910390fd5b505050565b5f33905090565b611e236106a1565b611e59576040517f8dfc202b00000000000000000000000000000000000000000000000000000000815260040160405180910390fd5b565b611e63611fa1565b15611e9a576040517f3ee5aeb500000000000000000000000000000000000000000000000000000000815260040160405180910390fd5b565b5f7f9b779b17422d0df92223018b32b4d1fa46e071723d6817e2486d003becc55f005f1b905090565b5f819050919050565b5f5f6323b872dd60e01b9050604051815f525f1960601c87166004525f1960601c86166024528460445260205f60645f5f8c5af1925060015f51148316611f2c578383151615611f20573d5f823e3d81fd5b5f883b113d1516831692505b806040525f606052505095945050505050565b5f5f63a9059cbb60e01b9050604051815f525f1960601c86166004528460245260205f60445f5f8b5af1925060015f51148316611f93578383151615611f87573d5f823e3d81fd5b5f873b113d1516831692505b806040525050949350505050565b5f6002611fb4611faf611e9c565b611ec5565b5f015414905090565b6040518060600160405280606081526020015f73ffffffffffffffffffffffffffffffffffffffff1681526020015f151581525090565b5f5ffd5b5f5ffd5b5f73ffffffffffffffffffffffffffffffffffffffff82169050919050565b5f61202582611ffc565b9050919050565b6120358161201b565b811461203f575f5ffd5b50565b5f813590506120508161202c565b92915050565b5f819050919050565b61206881612056565b8114612072575f5ffd5b50565b5f813590506120838161205f565b92915050565b5f5f6040838503121561209f5761209e611ff4565b5b5f6120ac85828601612042565b92505060206120bd85828601612075565b9150509250929050565b5f81519050919050565b5f82825260208201905092915050565b8281835e5f83830152505050565b5f601f19601f8301169050919050565b5f612109826120c7565b61211381856120d1565b93506121238185602086016120e1565b61212c816120ef565b840191505092915050565b6121408161201b565b82525050565b5f8115159050919050565b61215a81612146565b82525050565b5f606083015f8301518482035f86015261217a82826120ff565b915050602083015161218f6020860182612137565b5060408301516121a26040860182612151565b508091505092915050565b5f6020820190508181035f8301526121c58184612160565b905092915050565b5f5f604083850312156121e3576121e2611ff4565b5b5f6121f085828601612042565b925050602061220185828601612042565b9150509250929050565b61221481612056565b82525050565b5f60208201905061222d5f83018461220b565b92915050565b61223c81612146565b82525050565b5f6020820190506122555f830184612233565b92915050565b5f5f5f6060848603121561227257612271611ff4565b5b5f61227f86828701612042565b935050602061229086828701612042565b92505060406122a186828701612075565b9150509250925092565b6122b481612146565b81146122be575f5ffd5b50565b5f813590506122cf816122ab565b92915050565b5f5f604083850312156122eb576122ea611ff4565b5b5f6122f885828601612042565b9250506020612309858286016122c1565b9150509250929050565b5f5f6040838503121561232957612328611ff4565b5b5f61233685828601612075565b925050602061234785828601612042565b9150509250929050565b5f6020828403121561236657612365611ff4565b5b5f61237384828501612042565b91505092915050565b6123858161201b565b82525050565b5f60208201905061239e5f83018461237c565b92915050565b5f5f5f5f608085870312156123bc576123bb611ff4565b5b5f6123c987828801612042565b94505060206123da87828801612042565b93505060406123eb87828801612075565b92505060606123fc87828801612075565b91505092959194509250565b5f5f5f5f608085870312156124205761241f611ff4565b5b5f61242d87828801612042565b945050602061243e87828801612075565b935050604061244f87828801612075565b925050606061246087828801612075565b91505092959194509250565b5f5f5f6060848603121561248357612482611ff4565b5b5f61249086828701612042565b93505060206124a186828701612075565b92505060406124b286828701612075565b9150509250925092565b5f82825260208201905092915050565b5f6124d6826120c7565b6124e081856124bc565b93506124f08185602086016120e1565b6124f9816120ef565b840191505092915050565b5f6060820190508181035f83015261251c81866124cc565b905061252b602083018561237c565b6125386040830184612233565b949350505050565b5f5ffd5b5f5ffd5b5f5ffd5b5f5f83601f84011261256157612560612540565b5b8235905067ffffffffffffffff81111561257e5761257d612544565b5b60208301915083600182028301111561259a57612599612548565b5b9250929050565b5f5f5f604084860312156125b8576125b7611ff4565b5b5f84013567ffffffffffffffff8111156125d5576125d4611ff8565b5b6125e18682870161254c565b935093505060206125f486828701612042565b9150509250925092565b7f4e487b71000000000000000000000000000000000000000000000000000000005f52602260045260245ffd5b5f600282049050600182168061264257607f821691505b602082108103612655576126546125fe565b5b50919050565b7f4e487b71000000000000000000000000000000000000000000000000000000005f52601160045260245ffd5b5f61269282612056565b915061269d83612056565b92508282019050808211156126b5576126b461265b565b5b92915050565b5f819050919050565b5f819050919050565b5f6126e76126e26126dd846126bb565b6126c4565b612056565b9050919050565b6126f7816126cd565b82525050565b5f6040820190506127105f8301856126ee565b61271d602083018461220b565b9392505050565b5f6040820190506127375f83018561220b565b612744602083018461237c565b9392505050565b5f60408201905061275e5f83018561220b565b61276b602083018461220b565b9392505050565b5f61277c82612056565b915061278783612056565b925082820390508181111561279f5761279e61265b565b5b92915050565b7f4e487b71000000000000000000000000000000000000000000000000000000005f52604160045260245ffd5b5f819050815f5260205f209050919050565b5f6020601f8301049050919050565b5f82821b905092915050565b5f6008830261282e7fffffffffffffffffffffffffffffffffffffffffffffffffffffffffffffffff826127f3565b61283886836127f3565b95508019841693508086168417925050509392505050565b5f61286a61286561286084612056565b6126c4565b612056565b9050919050565b5f819050919050565b61288383612850565b61289761288f82612871565b8484546127ff565b825550505050565b5f5f905090565b6128ae61289f565b6128b981848461287a565b505050565b5f5b828110156128df576128d45f8284016128a6565b6001810190506128c0565b505050565b601f8211156129325782821115612931576128fe816127d2565b612907836127e4565b612910856127e4565b602086101561291d575f90505b80830161292c828403826128be565b505050505b5b505050565b5f82821c905092915050565b5f6129525f1984600802612937565b1980831691505092915050565b5f61296a8383612943565b9150826002028217905092915050565b612983826120c7565b67ffffffffffffffff81111561299c5761299b6127a5565b5b6129a6825461262b565b6129b18282856128e4565b5f60209050601f8311600181146129e2575f84156129d0578287015190505b6129da858261295f565b865550612a41565b601f1984166129f0866127d2565b5f5b82811015612a17578489015182556001820191506020850194506020810190506129f2565b86831015612a345784890151612a30601f891682612943565b8355505b6001600288020188555050505b505050505050565b5f612a5382612056565b91507fffffffffffffffffffffffffffffffffffffffffffffffffffffffffffffffff8203612a8557612a8461265b565b5b600182019050919050565b5f606082019050612aa35f83018661220b565b8181036020830152612ab581856124cc565b9050612ac4604083018461237c565b94935050505056fea264697066735822122071e82299bdfa55f310869caeb88a76d4373f50673967575a2b0389525548420964736f6c63430008230033","linkReferences":{}},"methodIdentifiers":{"acceptedTokens(address)":"82dc4a05","balances(address,address,uint256)":"6b942b86","createSubWallet(string,address)":"e049bb3d","deactivateSubWallet(uint256,address)":"789c3de1","getBalance(address,address,uint256)":"61e5f354","getSubWallet(address,uint256)":"44c4be2b","getTotalBalance(address,address)":"51bd551f","moveBalance(address,uint256,uint256,uint256)":"ac05452a","owner()":"8da5cb5b","pause()":"8456cb59","paused()":"5c975abb","renounceOwnership()":"715018a6","setAcceptedToken(address,bool)":"c997dbca","setSettler(address,bool)":"77a35465","settle(address,address,uint256,uint256)":"a5b1e13d","settlers(address)":"c70a900f","subWallets(address,uint256)":"d801b812","transferOwnership(address)":"f2fde38b","unpause()":"3f4ba83a","updateSubWallet(uint256,address)":"e904a960","walletCount(address)":"a7e0122e","withdraw(address,uint256,uint256)":"b5c5f672"},"id":38}