{"abi":[{"type":"constructor","inputs":[{"name":"_feeRecipient","type":"address","internalType":"address"},{"name":"_feeBps","type":"uint256","internalType":"uint256"},{"name":"_kyc","type":"address","internalType":"address"},{"name":"_wallet","type":"address","internalType":"address"}],"stateMutability":"nonpayable"},{"type":"function","name":"acceptedTokens","inputs":[{"name":"","type":"address","internalType":"address"}],"outputs":[{"name":"","type":"bool","internalType":"bool"}],"stateMutability":"view"},{"type":"function","name":"cancelInvoice","inputs":[{"name":"id","type":"bytes32","internalType":"bytes32"}],"outputs":[],"stateMutability":"nonpayable"},{"type":"function","name":"createInvoice","inputs":[{"name":"id","type":"bytes32","internalType":"bytes32"},{"name":"customer","type":"address","internalType":"address"},{"name":"amount","type":"uint256","internalType":"uint256"},{"name":"token","type":"address","internalType":"address"},{"name":"expiresAt","type":"uint256","internalType":"uint256"},{"name":"description","type":"string","internalType":"string"}],"outputs":[],"stateMutability":"nonpayable"},{"type":"function","name":"feeBps","inputs":[],"outputs":[{"name":"","type":"uint256","internalType":"uint256"}],"stateMutability":"view"},{"type":"function","name":"feeRecipient","inputs":[],"outputs":[{"name":"","type":"address","internalType":"address"}],"stateMutability":"view"},{"type":"function","name":"getInvoice","inputs":[{"name":"id","type":"bytes32","internalType":"bytes32"}],"outputs":[{"name":"","type":"tuple","internalType":"struct MercaInvoice.Invoice","components":[{"name":"id","type":"bytes32","internalType":"bytes32"},{"name":"merchant","type":"address","internalType":"address"},{"name":"customer","type":"address","internalType":"address"},{"name":"amount","type":"uint256","internalType":"uint256"},{"name":"token","type":"address","internalType":"address"},{"name":"status","type":"uint8","internalType":"enum MercaInvoice.Status"},{"name":"createdAt","type":"uint256","internalType":"uint256"},{"name":"expiresAt","type":"uint256","internalType":"uint256"},{"name":"description","type":"string","internalType":"string"}]}],"stateMutability":"view"},{"type":"function","name":"getMerchantInvoices","inputs":[{"name":"merchant","type":"address","internalType":"address"}],"outputs":[{"name":"","type":"bytes32[]","internalType":"bytes32[]"}],"stateMutability":"view"},{"type":"function","name":"invoices","inputs":[{"name":"","type":"bytes32","internalType":"bytes32"}],"outputs":[{"name":"id","type":"bytes32","internalType":"bytes32"},{"name":"merchant","type":"address","internalType":"address"},{"name":"customer","type":"address","internalType":"address"},{"name":"amount","type":"uint256","internalType":"uint256"},{"name":"token","type":"address","internalType":"address"},{"name":"status","type":"uint8","internalType":"enum MercaInvoice.Status"},{"name":"createdAt","type":"uint256","internalType":"uint256"},{"name":"expiresAt","type":"uint256","internalType":"uint256"},{"name":"description","type":"string","internalType":"string"}],"stateMutability":"view"},{"type":"function","name":"isExpired","inputs":[{"name":"id","type":"bytes32","internalType":"bytes32"}],"outputs":[{"name":"","type":"bool","internalType":"bool"}],"stateMutability":"view"},{"type":"function","name":"kyc","inputs":[],"outputs":[{"name":"","type":"address","internalType":"contract MercaKYC"}],"stateMutability":"view"},{"type":"function","name":"kycRequired","inputs":[],"outputs":[{"name":"","type":"bool","internalType":"bool"}],"stateMutability":"view"},{"type":"function","name":"merchantInvoices","inputs":[{"name":"","type":"address","internalType":"address"},{"name":"","type":"uint256","internalType":"uint256"}],"outputs":[{"name":"","type":"bytes32","internalType":"bytes32"}],"stateMutability":"view"},{"type":"function","name":"owner","inputs":[],"outputs":[{"name":"","type":"address","internalType":"address"}],"stateMutability":"view"},{"type":"function","name":"pause","inputs":[],"outputs":[],"stateMutability":"nonpayable"},{"type":"function","name":"paused","inputs":[],"outputs":[{"name":"","type":"bool","internalType":"bool"}],"stateMutability":"view"},{"type":"function","name":"payInvoice","inputs":[{"name":"id","type":"bytes32","internalType":"bytes32"}],"outputs":[],"stateMutability":"nonpayable"},{"type":"function","name":"renounceOwnership","inputs":[],"outputs":[],"stateMutability":"nonpayable"},{"type":"function","name":"setAcceptedToken","inputs":[{"name":"token","type":"address","internalType":"address"},{"name":"accepted","type":"bool","internalType":"bool"}],"outputs":[],"stateMutability":"nonpayable"},{"type":"function","name":"setFee","inputs":[{"name":"_feeBps","type":"uint256","internalType":"uint256"},{"name":"_feeRecipient","type":"address","internalType":"address"}],"outputs":[],"stateMutability":"nonpayable"},{"type":"function","name":"setKYC","inputs":[{"name":"_kyc","type":"address","internalType":"address"}],"outputs":[],"stateMutability":"nonpayable"},{"type":"function","name":"setKYCRequired","inputs":[{"name":"_required","type":"bool","internalType":"bool"}],"outputs":[],"stateMutability":"nonpayable"},{"type":"function","name":"setWallet","inputs":[{"name":"_wallet","type":"address","internalType":"address"}],"outputs":[],"stateMutability":"nonpayable"},{"type":"function","name":"transferOwnership","inputs":[{"name":"newOwner","type":"address","internalType":"address"}],"outputs":[],"stateMutability":"nonpayable"},{"type":"function","name":"unpause","inputs":[],"outputs":[],"stateMutability":"nonpayable"},{"type":"function","name":"wallet","inputs":[],"outputs":[{"name":"","type":"address","internalType":"contract MercaWallet"}],"stateMutability":"view"},{"type":"event","name":"FeeUpdated","inputs":[{"name":"feeBps","type":"uint256","indexed":false,"internalType":"uint256"},{"name":"feeRecipient","type":"address","indexed":false,"internalType":"address"}],"anonymous":false},{"type":"event","name":"InvoiceCancelled","inputs":[{"name":"id","type":"bytes32","indexed":true,"internalType":"bytes32"},{"name":"merchant","type":"address","indexed":true,"internalType":"address"}],"anonymous":false},{"type":"event","name":"InvoiceCreated","inputs":[{"name":"id","type":"bytes32","indexed":true,"internalType":"bytes32"},{"name":"merchant","type":"address","indexed":true,"internalType":"address"},{"name":"token","type":"address","indexed":true,"internalType":"address"},{"name":"amount","type":"uint256","indexed":false,"internalType":"uint256"},{"name":"expiresAt","type":"uint256","indexed":false,"internalType":"uint256"}],"anonymous":false},{"type":"event","name":"InvoiceExpired","inputs":[{"name":"id","type":"bytes32","indexed":true,"internalType":"bytes32"}],"anonymous":false},{"type":"event","name":"InvoicePaid","inputs":[{"name":"id","type":"bytes32","indexed":true,"internalType":"bytes32"},{"name":"payer","type":"address","indexed":true,"internalType":"address"},{"name":"merchant","type":"address","indexed":true,"internalType":"address"},{"name":"amount","type":"uint256","indexed":false,"internalType":"uint256"},{"name":"fee","type":"uint256","indexed":false,"internalType":"uint256"}],"anonymous":false},{"type":"event","name":"KYCContractUpdated","inputs":[{"name":"kyc","type":"address","indexed":false,"internalType":"address"}],"anonymous":false},{"type":"event","name":"KYCRequiredUpdated","inputs":[{"name":"required","type":"bool","indexed":false,"internalType":"bool"}],"anonymous":false},{"type":"event","name":"OwnershipTransferred","inputs":[{"name":"previousOwner","type":"address","indexed":true,"internalType":"address"},{"name":"newOwner","type":"address","indexed":true,"internalType":"address"}],"anonymous":false},{"type":"event","name":"Paused","inputs":[{"name":"account","type":"address","indexed":false,"internalType":"address"}],"anonymous":false},{"type":"event","name":"TokenWhitelisted","inputs":[{"name":"token","type":"address","indexed":true,"internalType":"address"},{"name":"accepted","type":"bool","indexed":false,"internalType":"bool"}],"anonymous":false},{"type":"event","name":"Unpaused","inputs":[{"name":"account","type":"address","indexed":false,"internalType":"address"}],"anonymous":false},{"type":"event","name":"WalletContractUpdated","inputs":[{"name":"wallet","type":"address","indexed":false,"internalType":"address"}],"anonymous":false},{"type":"error","name":"EnforcedPause","inputs":[]},{"type":"error","name":"ExpectedPause","inputs":[]},{"type":"error","name":"FeeTooHigh","inputs":[]},{"type":"error","name":"InvalidAmount","inputs":[]},{"type":"error","name":"InvalidMerchant","inputs":[]},{"type":"error","name":"InvoiceAlreadyExists","inputs":[{"name":"id","type":"bytes32","internalType":"bytes32"}]},{"type":"error","name":"InvoiceExpiredError","inputs":[{"name":"id","type":"bytes32","internalType":"bytes32"}]},{"type":"error","name":"InvoiceNotFound","inputs":[{"name":"id","type":"bytes32","internalType":"bytes32"}]},{"type":"error","name":"InvoiceNotPending","inputs":[{"name":"id","type":"bytes32","internalType":"bytes32"},{"name":"status","type":"uint8","internalType":"enum MercaInvoice.Status"}]},{"type":"error","name":"KYCNotVerified","inputs":[{"name":"merchant","type":"address","internalType":"address"}]},{"type":"error","name":"NotMerchant","inputs":[{"name":"id","type":"bytes32","internalType":"bytes32"}]},{"type":"error","name":"OwnableInvalidOwner","inputs":[{"name":"owner","type":"address","internalType":"address"}]},{"type":"error","name":"OwnableUnauthorizedAccount","inputs":[{"name":"account","type":"address","internalType":"address"}]},{"type":"error","name":"ReentrancyGuardReentrantCall","inputs":[]},{"type":"error","name":"SafeERC20FailedOperation","inputs":[{"name":"token","type":"address","internalType":"address"}]},{"type":"error","name":"TokenNotAccepted","inputs":[{"name":"token","type":"address","internalType":"address"}]},{"type":"error","name":"WalletNotSet","inputs":[]},{"type":"error","name":"WrongCustomer","inputs":[{"name":"id","type":"bytes32","internalType":"bytes32"}]}],"bytecode":{"object":"0x608060405234801561000f575f5ffd5b5060405161328138038061328183398181016040528101906100319190610381565b335f73ffffffffffffffffffffffffffffffffffffffff168173ffffffffffffffffffffffffffffffffffffffff16036100a2575f6040517f1e4fbdf700000000000000000000000000000000000000000000000000000000815260040161009991906103f4565b60405180910390fd5b6100b1816101fd60201b60201c565b5060016100d06100c56102be60201b60201c565b6102e760201b60201c565b5f01819055506103e8831115610112576040517fcd4e616700000000000000000000000000000000000000000000000000000000815260040160405180910390fd5b8360055f6101000a81548173ffffffffffffffffffffffffffffffffffffffff021916908373ffffffffffffffffffffffffffffffffffffffff160217905550826004819055508160065f6101000a81548173ffffffffffffffffffffffffffffffffffffffff021916908373ffffffffffffffffffffffffffffffffffffffff1602179055508060075f6101000a81548173ffffffffffffffffffffffffffffffffffffffff021916908373ffffffffffffffffffffffffffffffffffffffff1602179055506001600760146101000a81548160ff0219169083151502179055505050505061040d565b5f5f5f9054906101000a900473ffffffffffffffffffffffffffffffffffffffff169050815f5f6101000a81548173ffffffffffffffffffffffffffffffffffffffff021916908373ffffffffffffffffffffffffffffffffffffffff1602179055508173ffffffffffffffffffffffffffffffffffffffff168173ffffffffffffffffffffffffffffffffffffffff167f8be0079c531659141344cd1fd0a4f28419497f9722a3daafe3b4186f6b6457e060405160405180910390a35050565b5f7f9b779b17422d0df92223018b32b4d1fa46e071723d6817e2486d003becc55f005f1b905090565b5f819050919050565b5f5ffd5b5f73ffffffffffffffffffffffffffffffffffffffff82169050919050565b5f61031d826102f4565b9050919050565b61032d81610313565b8114610337575f5ffd5b50565b5f8151905061034881610324565b92915050565b5f819050919050565b6103608161034e565b811461036a575f5ffd5b50565b5f8151905061037b81610357565b92915050565b5f5f5f5f60808587031215610399576103986102f0565b5b5f6103a68782880161033a565b94505060206103b78782880161036d565b93505060406103c88782880161033a565b92505060606103d98782880161033a565b91505092959194509250565b6103ee81610313565b82525050565b5f6020820190506104075f8301846103e5565b92915050565b612e678061041a5f395ff3fe608060405234801561000f575f5ffd5b5060043610610171575f3560e01c80638456cb59116100dc578063c0aa7e2e11610095578063deaa59df1161006f578063deaa59df146103fd578063e86131fa14610419578063f2fde38b14610435578063f8a8a0761461045157610171565b8063c0aa7e2e14610395578063c997dbca146103b1578063cb802c8b146103cd57610171565b80638456cb59146102e557806386c0909c146102ef5780638da5cb5b1461031f57806390d6b45f1461033d578063b4f2e8b81461035b578063b96990911461037757610171565b8063483a83df1161012e578063483a83df14610223578063521eb2731461023f5780635c975abb1461025d5780636db2feb21461027b578063715018a6146102ab57806382dc4a05146102b557610171565b8063026df7a41461017557806314d771b014610191578063222ab347146101c157806324a9d853146101dd5780633f4ba83a146101fb5780634690484014610205575b5f5ffd5b61018f600480360381019061018a91906121f8565b610489565b005b6101ab60048036038101906101a691906122a2565b6109e4565b6040516101b891906122ef565b60405180910390f35b6101db60048036038101906101d69190612308565b610a0f565b005b6101e5610f72565b6040516101f29190612342565b60405180910390f35b610203610f78565b005b61020d610f8a565b60405161021a919061236a565b60405180910390f35b61023d60048036038101906102389190612383565b610faf565b005b610247611031565b6040516102549190612409565b60405180910390f35b610265611056565b604051610272919061243c565b60405180910390f35b61029560048036038101906102909190612308565b61106b565b6040516102a2919061243c565b60405180910390f35b6102b361109f565b005b6102cf60048036038101906102ca9190612383565b6110b2565b6040516102dc919061243c565b60405180910390f35b6102ed6110cf565b005b61030960048036038101906103049190612383565b6110e1565b604051610316919061250c565b60405180910390f35b610327611174565b604051610334919061236a565b60405180910390f35b61034561119b565b604051610352919061254c565b60405180910390f35b61037560048036038101906103709190612565565b6111c0565b005b61037f611288565b60405161038c919061243c565b60405180910390f35b6103af60048036038101906103aa9190612308565b61129b565b005b6103cb60048036038101906103c691906125cd565b61148b565b005b6103e760048036038101906103e29190612308565b611539565b6040516103f491906127ce565b60405180910390f35b61041760048036038101906104129190612383565b6117ae565b005b610433600480360381019061042e91906127ee565b611830565b005b61044f600480360381019061044a9190612383565b61188c565b005b61046b60048036038101906104669190612308565b611910565b60405161048099989796959493929190612870565b60405180910390f35b610491611a4a565b5f60015f8981526020019081526020015f2060050154146104e957866040517f04ebb9ce0000000000000000000000000000000000000000000000000000000081526004016104e091906122ef565b60405180910390fd5b5f8503610522576040517f2c5211c600000000000000000000000000000000000000000000000000000000815260040160405180910390fd5b60035f8573ffffffffffffffffffffffffffffffffffffffff1673ffffffffffffffffffffffffffffffffffffffff1681526020019081526020015f205f9054906101000a900460ff166105ad57836040517ff01157c30000000000000000000000000000000000000000000000000000000081526004016105a4919061236a565b60405180910390fd5b5f83141580156105bd5750428311155b156105f4576040517f2c5211c600000000000000000000000000000000000000000000000000000000815260040160405180910390fd5b600760149054906101000a900460ff1680156106a6575060065f9054906101000a900473ffffffffffffffffffffffffffffffffffffffff1673ffffffffffffffffffffffffffffffffffffffff16632003f60c336040518263ffffffff1660e01b8152600401610665919061236a565b602060405180830381865afa158015610680573d5f5f3e3d5ffd5b505050506040513d601f19601f820116820180604052508101906106a49190612916565b155b156106e857336040517fc99dfa4f0000000000000000000000000000000000000000000000000000000081526004016106df919061236a565b60405180910390fd5b6040518061012001604052808881526020013373ffffffffffffffffffffffffffffffffffffffff1681526020018773ffffffffffffffffffffffffffffffffffffffff1681526020018681526020018573ffffffffffffffffffffffffffffffffffffffff1681526020015f600381111561076757610766612629565b5b815260200142815260200184815260200183838080601f0160208091040260200160405190810160405280939291908181526020018383808284375f81840152601f19601f8201169050808301925050505050505081525060015f8981526020019081526020015f205f820151815f01556020820151816001015f6101000a81548173ffffffffffffffffffffffffffffffffffffffff021916908373ffffffffffffffffffffffffffffffffffffffff1602179055506040820151816002015f6101000a81548173ffffffffffffffffffffffffffffffffffffffff021916908373ffffffffffffffffffffffffffffffffffffffff160217905550606082015181600301556080820151816004015f6101000a81548173ffffffffffffffffffffffffffffffffffffffff021916908373ffffffffffffffffffffffffffffffffffffffff16021790555060a08201518160040160146101000a81548160ff021916908360038111156108df576108de612629565b5b021790555060c0820151816005015560e0820151816006015561010082015181600701908161090e9190612b73565b5090505060025f3373ffffffffffffffffffffffffffffffffffffffff1673ffffffffffffffffffffffffffffffffffffffff1681526020019081526020015f2087908060018154018082558091505060019003905f5260205f20015f90919091909150558373ffffffffffffffffffffffffffffffffffffffff163373ffffffffffffffffffffffffffffffffffffffff16887f9ca8894a07b5464662d47af3e38d07ebd271132e227ac69ed0e9e4eebbf709e688876040516109d3929190612c42565b60405180910390a450505050505050565b6002602052815f5260405f2081815481106109fd575f80fd5b905f5260205f20015f91509150505481565b610a17611a8b565b610a1f611a4a565b5f60015f8381526020019081526020015f2090505f816005015403610a7b57816040517f20bb2818000000000000000000000000000000000000000000000000000000008152600401610a7291906122ef565b60405180910390fd5b5f6003811115610a8e57610a8d612629565b5b8160040160149054906101000a900460ff166003811115610ab257610ab1612629565b5b14610b0757818160040160149054906101000a900460ff166040517f30b46670000000000000000000000000000000000000000000000000000000008152600401610afe929190612c69565b60405180910390fd5b5f816006015414158015610b1e5750806006015442115b15610bba5760038160040160146101000a81548160ff02191690836003811115610b4b57610b4a612629565b5b0217905550817f53a78a416c147a0a42a880f3b2aa3e52c97483afce1c42828c7f6f3e8cae10bf60405160405180910390a2816040517f1f05832d000000000000000000000000000000000000000000000000000000008152600401610bb191906122ef565b60405180910390fd5b5f73ffffffffffffffffffffffffffffffffffffffff16816002015f9054906101000a900473ffffffffffffffffffffffffffffffffffffffff1673ffffffffffffffffffffffffffffffffffffffff1614158015610c6857503373ffffffffffffffffffffffffffffffffffffffff16816002015f9054906101000a900473ffffffffffffffffffffffffffffffffffffffff1673ffffffffffffffffffffffffffffffffffffffff1614155b15610caa57816040517f762921d0000000000000000000000000000000000000000000000000000000008152600401610ca191906122ef565b60405180910390fd5b60018160040160146101000a81548160ff02191690836003811115610cd257610cd1612629565b5b02179055505f6127106004548360030154610ced9190612cbd565b610cf79190612d2b565b90505f818360030154610d0a9190612d5b565b90505f836004015f9054906101000a900473ffffffffffffffffffffffffffffffffffffffff169050610d64333086600301548473ffffffffffffffffffffffffffffffffffffffff16611aad909392919063ffffffff16565b5f831115610db957610db860055f9054906101000a900473ffffffffffffffffffffffffffffffffffffffff16848373ffffffffffffffffffffffffffffffffffffffff16611b029092919063ffffffff16565b5b610e0560075f9054906101000a900473ffffffffffffffffffffffffffffffffffffffff16838373ffffffffffffffffffffffffffffffffffffffff16611b559092919063ffffffff16565b60075f9054906101000a900473ffffffffffffffffffffffffffffffffffffffff1673ffffffffffffffffffffffffffffffffffffffff1663a5b1e13d856001015f9054906101000a900473ffffffffffffffffffffffffffffffffffffffff16866004015f9054906101000a900473ffffffffffffffffffffffffffffffffffffffff165f866040518563ffffffff1660e01b8152600401610eab9493929190612dc7565b5f604051808303815f87803b158015610ec2575f5ffd5b505af1158015610ed4573d5f5f3e3d5ffd5b50505050836001015f9054906101000a900473ffffffffffffffffffffffffffffffffffffffff1673ffffffffffffffffffffffffffffffffffffffff163373ffffffffffffffffffffffffffffffffffffffff16867f9615dc2d5d2739a2b83f1e48261a6f845a996c0a54209b3044193556e74414cc8587604051610f5b929190612c42565b60405180910390a450505050610f6f611c07565b50565b60045481565b610f80611c21565b610f88611ca8565b565b60055f9054906101000a900473ffffffffffffffffffffffffffffffffffffffff1681565b610fb7611c21565b8060065f6101000a81548173ffffffffffffffffffffffffffffffffffffffff021916908373ffffffffffffffffffffffffffffffffffffffff1602179055507f4f589e6a3abb770e918faa4a81179c080e1b4863e122f360b52fb98f09c63d1081604051611026919061236a565b60405180910390a150565b60075f9054906101000a900473ffffffffffffffffffffffffffffffffffffffff1681565b5f5f60149054906101000a900460ff16905090565b5f5f60015f8481526020019081526020015f2090505f8160060154141580156110975750806006015442115b915050919050565b6110a7611c21565b6110b05f611d09565b565b6003602052805f5260405f205f915054906101000a900460ff1681565b6110d7611c21565b6110df611dca565b565b606060025f8373ffffffffffffffffffffffffffffffffffffffff1673ffffffffffffffffffffffffffffffffffffffff1681526020019081526020015f2080548060200260200160405190810160405280929190818152602001828054801561116857602002820191905f5260205f20905b815481526020019060010190808311611154575b50505050509050919050565b5f5f5f9054906101000a900473ffffffffffffffffffffffffffffffffffffffff16905090565b60065f9054906101000a900473ffffffffffffffffffffffffffffffffffffffff1681565b6111c8611c21565b6103e8821115611204576040517fcd4e616700000000000000000000000000000000000000000000000000000000815260040160405180910390fd5b816004819055508060055f6101000a81548173ffffffffffffffffffffffffffffffffffffffff021916908373ffffffffffffffffffffffffffffffffffffffff1602179055507f7cfad8b150be9751a5386cc4e0f549618032ff63d14fab4f77cd4b0aaaedc242828260405161127c929190612e0a565b60405180910390a15050565b600760149054906101000a900460ff1681565b5f60015f8381526020019081526020015f2090505f8160050154036112f757816040517f20bb28180000000000000000000000000000000000000000000000000000000081526004016112ee91906122ef565b60405180910390fd5b3373ffffffffffffffffffffffffffffffffffffffff16816001015f9054906101000a900473ffffffffffffffffffffffffffffffffffffffff1673ffffffffffffffffffffffffffffffffffffffff161461138a57816040517f8fd6476f00000000000000000000000000000000000000000000000000000000815260040161138191906122ef565b60405180910390fd5b5f600381111561139d5761139c612629565b5b8160040160149054906101000a900460ff1660038111156113c1576113c0612629565b5b1461141657818160040160149054906101000a900460ff166040517f30b4667000000000000000000000000000000000000000000000000000000000815260040161140d929190612c69565b60405180910390fd5b60028160040160146101000a81548160ff0219169083600381111561143e5761143d612629565b5b02179055503373ffffffffffffffffffffffffffffffffffffffff16827f881d07924d83735d00c06370239f77e65622c5033b00ccd03a9358be68de819d60405160405180910390a35050565b611493611c21565b8060035f8473ffffffffffffffffffffffffffffffffffffffff1673ffffffffffffffffffffffffffffffffffffffff1681526020019081526020015f205f6101000a81548160ff0219169083151502179055508173ffffffffffffffffffffffffffffffffffffffff167fef81a9943b96c8df4ef243401c9bf5159146166211356898b52d382086168d928260405161152d919061243c565b60405180910390a25050565b611541612037565b5f60015f8481526020019081526020015f20600501540361159957816040517f20bb281800000000000000000000000000000000000000000000000000000000815260040161159091906122ef565b60405180910390fd5b60015f8381526020019081526020015f20604051806101200160405290815f8201548152602001600182015f9054906101000a900473ffffffffffffffffffffffffffffffffffffffff1673ffffffffffffffffffffffffffffffffffffffff1673ffffffffffffffffffffffffffffffffffffffff168152602001600282015f9054906101000a900473ffffffffffffffffffffffffffffffffffffffff1673ffffffffffffffffffffffffffffffffffffffff1673ffffffffffffffffffffffffffffffffffffffff16815260200160038201548152602001600482015f9054906101000a900473ffffffffffffffffffffffffffffffffffffffff1673ffffffffffffffffffffffffffffffffffffffff1673ffffffffffffffffffffffffffffffffffffffff1681526020016004820160149054906101000a900460ff1660038111156116ed576116ec612629565b5b60038111156116ff576116fe612629565b5b815260200160058201548152602001600682015481526020016007820180546117279061299b565b80601f01602080910402602001604051908101604052809291908181526020018280546117539061299b565b801561179e5780601f106117755761010080835404028352916020019161179e565b820191905f5260205f20905b81548152906001019060200180831161178157829003601f168201915b5050505050815250509050919050565b6117b6611c21565b8060075f6101000a81548173ffffffffffffffffffffffffffffffffffffffff021916908373ffffffffffffffffffffffffffffffffffffffff1602179055507fcf106470ac0c4b1cbdcd7a0465ef571e84a1470aa50de6f49f19ac7d89e1c60f81604051611825919061236a565b60405180910390a150565b611838611c21565b80600760146101000a81548160ff0219169083151502179055507f0dd80c0171ba8b78741d6fc01896b2e34cdffd47ef4b90466eeb569eb596095681604051611881919061243c565b60405180910390a150565b611894611c21565b5f73ffffffffffffffffffffffffffffffffffffffff168173ffffffffffffffffffffffffffffffffffffffff1603611904575f6040517f1e4fbdf70000000000000000000000000000000000000000000000000000000081526004016118fb919061236a565b60405180910390fd5b61190d81611d09565b50565b6001602052805f5260405f205f91509050805f015490806001015f9054906101000a900473ffffffffffffffffffffffffffffffffffffffff1690806002015f9054906101000a900473ffffffffffffffffffffffffffffffffffffffff1690806003015490806004015f9054906101000a900473ffffffffffffffffffffffffffffffffffffffff16908060040160149054906101000a900460ff16908060050154908060060154908060070180546119c99061299b565b80601f01602080910402602001604051908101604052809291908181526020018280546119f59061299b565b8015611a405780601f10611a1757610100808354040283529160200191611a40565b820191905f5260205f20905b815481529060010190602001808311611a2357829003601f168201915b5050505050905089565b611a52611056565b15611a89576040517fd93c066500000000000000000000000000000000000000000000000000000000815260040160405180910390fd5b565b611a93611e2c565b6002611aa5611aa0611e6d565b611e96565b5f0181905550565b611abb848484846001611e9f565b611afc57836040517f5274afe7000000000000000000000000000000000000000000000000000000008152600401611af3919061236a565b60405180910390fd5b50505050565b611b0f8383836001611f10565b611b5057826040517f5274afe7000000000000000000000000000000000000000000000000000000008152600401611b47919061236a565b60405180910390fd5b505050565b611b618383835f611f72565b611c0257611b7283835f6001611f72565b611bb357826040517f5274afe7000000000000000000000000000000000000000000000000000000008152600401611baa919061236a565b60405180910390fd5b611bc08383836001611f72565b611c0157826040517f5274afe7000000000000000000000000000000000000000000000000000000008152600401611bf8919061236a565b60405180910390fd5b5b505050565b6001611c19611c14611e6d565b611e96565b5f0181905550565b611c29611fd4565b73ffffffffffffffffffffffffffffffffffffffff16611c47611174565b73ffffffffffffffffffffffffffffffffffffffff1614611ca657611c6a611fd4565b6040517f118cdaa7000000000000000000000000000000000000000000000000000000008152600401611c9d919061236a565b60405180910390fd5b565b611cb0611fdb565b5f5f60146101000a81548160ff0219169083151502179055507f5db9ee0a495bf2e6ff9c91a7834c1ba4fdd244a5e8aa4e537bd38aeae4b073aa611cf2611fd4565b604051611cff919061236a565b60405180910390a1565b5f5f5f9054906101000a900473ffffffffffffffffffffffffffffffffffffffff169050815f5f6101000a81548173ffffffffffffffffffffffffffffffffffffffff021916908373ffffffffffffffffffffffffffffffffffffffff1602179055508173ffffffffffffffffffffffffffffffffffffffff168173ffffffffffffffffffffffffffffffffffffffff167f8be0079c531659141344cd1fd0a4f28419497f9722a3daafe3b4186f6b6457e060405160405180910390a35050565b611dd2611a4a565b60015f60146101000a81548160ff0219169083151502179055507f62e78cea01bee320cd4e420270b5ea74000d11b0c9f74754ebdbfc544b05a258611e15611fd4565b604051611e22919061236a565b60405180910390a1565b611e3461201b565b15611e6b576040517f3ee5aeb500000000000000000000000000000000000000000000000000000000815260040160405180910390fd5b565b5f7f9b779b17422d0df92223018b32b4d1fa46e071723d6817e2486d003becc55f005f1b905090565b5f819050919050565b5f5f6323b872dd60e01b9050604051815f525f1960601c87166004525f1960601c86166024528460445260205f60645f5f8c5af1925060015f51148316611efd578383151615611ef1573d5f823e3d81fd5b5f883b113d1516831692505b806040525f606052505095945050505050565b5f5f63a9059cbb60e01b9050604051815f525f1960601c86166004528460245260205f60445f5f8b5af1925060015f51148316611f64578383151615611f58573d5f823e3d81fd5b5f873b113d1516831692505b806040525050949350505050565b5f5f63095ea7b360e01b9050604051815f525f1960601c86166004528460245260205f60445f5f8b5af1925060015f51148316611fc6578383151615611fba573d5f823e3d81fd5b5f873b113d1516831692505b806040525050949350505050565b5f33905090565b611fe3611056565b612019576040517f8dfc202b00000000000000000000000000000000000000000000000000000000815260040160405180910390fd5b565b5f600261202e612029611e6d565b611e96565b5f015414905090565b6040518061012001604052805f81526020015f73ffffffffffffffffffffffffffffffffffffffff1681526020015f73ffffffffffffffffffffffffffffffffffffffff1681526020015f81526020015f73ffffffffffffffffffffffffffffffffffffffff1681526020015f60038111156120b6576120b5612629565b5b81526020015f81526020015f8152602001606081525090565b5f5ffd5b5f5ffd5b5f819050919050565b6120e9816120d7565b81146120f3575f5ffd5b50565b5f81359050612104816120e0565b92915050565b5f73ffffffffffffffffffffffffffffffffffffffff82169050919050565b5f6121338261210a565b9050919050565b61214381612129565b811461214d575f5ffd5b50565b5f8135905061215e8161213a565b92915050565b5f819050919050565b61217681612164565b8114612180575f5ffd5b50565b5f813590506121918161216d565b92915050565b5f5ffd5b5f5ffd5b5f5ffd5b5f5f83601f8401126121b8576121b7612197565b5b8235905067ffffffffffffffff8111156121d5576121d461219b565b5b6020830191508360018202830111156121f1576121f061219f565b5b9250929050565b5f5f5f5f5f5f5f60c0888a031215612213576122126120cf565b5b5f6122208a828b016120f6565b97505060206122318a828b01612150565b96505060406122428a828b01612183565b95505060606122538a828b01612150565b94505060806122648a828b01612183565b93505060a088013567ffffffffffffffff811115612285576122846120d3565b5b6122918a828b016121a3565b925092505092959891949750929550565b5f5f604083850312156122b8576122b76120cf565b5b5f6122c585828601612150565b92505060206122d685828601612183565b9150509250929050565b6122e9816120d7565b82525050565b5f6020820190506123025f8301846122e0565b92915050565b5f6020828403121561231d5761231c6120cf565b5b5f61232a848285016120f6565b91505092915050565b61233c81612164565b82525050565b5f6020820190506123555f830184612333565b92915050565b61236481612129565b82525050565b5f60208201905061237d5f83018461235b565b92915050565b5f60208284031215612398576123976120cf565b5b5f6123a584828501612150565b91505092915050565b5f819050919050565b5f6123d16123cc6123c78461210a565b6123ae565b61210a565b9050919050565b5f6123e2826123b7565b9050919050565b5f6123f3826123d8565b9050919050565b612403816123e9565b82525050565b5f60208201905061241c5f8301846123fa565b92915050565b5f8115159050919050565b61243681612422565b82525050565b5f60208201905061244f5f83018461242d565b92915050565b5f81519050919050565b5f82825260208201905092915050565b5f819050602082019050919050565b612487816120d7565b82525050565b5f612498838361247e565b60208301905092915050565b5f602082019050919050565b5f6124ba82612455565b6124c4818561245f565b93506124cf8361246f565b805f5b838110156124ff5781516124e6888261248d565b97506124f1836124a4565b9250506001810190506124d2565b5085935050505092915050565b5f6020820190508181035f83015261252481846124b0565b905092915050565b5f612536826123d8565b9050919050565b6125468161252c565b82525050565b5f60208201905061255f5f83018461253d565b92915050565b5f5f6040838503121561257b5761257a6120cf565b5b5f61258885828601612183565b925050602061259985828601612150565b9150509250929050565b6125ac81612422565b81146125b6575f5ffd5b50565b5f813590506125c7816125a3565b92915050565b5f5f604083850312156125e3576125e26120cf565b5b5f6125f085828601612150565b9250506020612601858286016125b9565b9150509250929050565b61261481612129565b82525050565b61262381612164565b82525050565b7f4e487b71000000000000000000000000000000000000000000000000000000005f52602160045260245ffd5b6004811061266757612666612629565b5b50565b5f81905061267782612656565b919050565b5f6126868261266a565b9050919050565b6126968161267c565b82525050565b5f81519050919050565b5f82825260208201905092915050565b8281835e5f83830152505050565b5f601f19601f8301169050919050565b5f6126de8261269c565b6126e881856126a6565b93506126f88185602086016126b6565b612701816126c4565b840191505092915050565b5f61012083015f8301516127225f86018261247e565b506020830151612735602086018261260b565b506040830151612748604086018261260b565b50606083015161275b606086018261261a565b50608083015161276e608086018261260b565b5060a083015161278160a086018261268d565b5060c083015161279460c086018261261a565b5060e08301516127a760e086018261261a565b506101008301518482036101008601526127c182826126d4565b9150508091505092915050565b5f6020820190508181035f8301526127e6818461270c565b905092915050565b5f60208284031215612803576128026120cf565b5b5f612810848285016125b9565b91505092915050565b6128228161267c565b82525050565b5f82825260208201905092915050565b5f6128428261269c565b61284c8185612828565b935061285c8185602086016126b6565b612865816126c4565b840191505092915050565b5f610120820190506128845f83018c6122e0565b612891602083018b61235b565b61289e604083018a61235b565b6128ab6060830189612333565b6128b8608083018861235b565b6128c560a0830187612819565b6128d260c0830186612333565b6128df60e0830185612333565b8181036101008301526128f28184612838565b90509a9950505050505050505050565b5f81519050612910816125a3565b92915050565b5f6020828403121561292b5761292a6120cf565b5b5f61293884828501612902565b91505092915050565b7f4e487b71000000000000000000000000000000000000000000000000000000005f52604160045260245ffd5b7f4e487b71000000000000000000000000000000000000000000000000000000005f52602260045260245ffd5b5f60028204905060018216806129b257607f821691505b6020821081036129c5576129c461296e565b5b50919050565b5f819050815f5260205f209050919050565b5f6020601f8301049050919050565b5f82821b905092915050565b5f60088302612a277fffffffffffffffffffffffffffffffffffffffffffffffffffffffffffffffff826129ec565b612a3186836129ec565b95508019841693508086168417925050509392505050565b5f612a63612a5e612a5984612164565b6123ae565b612164565b9050919050565b5f819050919050565b612a7c83612a49565b612a90612a8882612a6a565b8484546129f8565b825550505050565b5f5f905090565b612aa7612a98565b612ab2818484612a73565b505050565b5f5b82811015612ad857612acd5f828401612a9f565b600181019050612ab9565b505050565b601f821115612b2b5782821115612b2a57612af7816129cb565b612b00836129dd565b612b09856129dd565b6020861015612b16575f90505b808301612b2582840382612ab7565b505050505b5b505050565b5f82821c905092915050565b5f612b4b5f1984600802612b30565b1980831691505092915050565b5f612b638383612b3c565b9150826002028217905092915050565b612b7c8261269c565b67ffffffffffffffff811115612b9557612b94612941565b5b612b9f825461299b565b612baa828285612add565b5f60209050601f831160018114612bdb575f8415612bc9578287015190505b612bd38582612b58565b865550612c3a565b601f198416612be9866129cb565b5f5b82811015612c1057848901518255600182019150602085019450602081019050612beb565b86831015612c2d5784890151612c29601f891682612b3c565b8355505b6001600288020188555050505b505050505050565b5f604082019050612c555f830185612333565b612c626020830184612333565b9392505050565b5f604082019050612c7c5f8301856122e0565b612c896020830184612819565b9392505050565b7f4e487b71000000000000000000000000000000000000000000000000000000005f52601160045260245ffd5b5f612cc782612164565b9150612cd283612164565b9250828202612ce081612164565b91508282048414831517612cf757612cf6612c90565b5b5092915050565b7f4e487b71000000000000000000000000000000000000000000000000000000005f52601260045260245ffd5b5f612d3582612164565b9150612d4083612164565b925082612d5057612d4f612cfe565b5b828204905092915050565b5f612d6582612164565b9150612d7083612164565b9250828203905081811115612d8857612d87612c90565b5b92915050565b5f819050919050565b5f612db1612dac612da784612d8e565b6123ae565b612164565b9050919050565b612dc181612d97565b82525050565b5f608082019050612dda5f83018761235b565b612de7602083018661235b565b612df46040830185612db8565b612e016060830184612333565b95945050505050565b5f604082019050612e1d5f830185612333565b612e2a602083018461235b565b939250505056fea264697066735822122098ab90dd8c9f50343e26d9afc8daa956031502c3fbcd3d01e229bbebbae78a7b64736f6c63430008230033","linkReferences":{}},"methodIdentifiers":{"acceptedTokens(address)":"82dc4a05","cancelInvoice(bytes32)":"c0aa7e2e","createInvoice(bytes32,address,uint256,address,uint256,string)":"026df7a4","feeBps()":"24a9d853","feeRecipient()":"46904840","getInvoice(bytes32)":"cb802c8b","getMerchantInvoices(address)":"86c0909c","invoices(bytes32)":"f8a8a076","isExpired(bytes32)":"6db2feb2","kyc()":"90d6b45f","kycRequired()":"b9699091","merchantInvoices(address,uint256)":"14d771b0","owner()":"8da5cb5b","pause()":"8456cb59","paused()":"5c975abb","payInvoice(bytes32)":"222ab347","renounceOwnership()":"715018a6","setAcceptedToken(address,bool)":"c997dbca","setFee(uint256,address)":"b4f2e8b8","setKYC(address)":"483a83df","setKYCRequired(bool)":"e86131fa","setWallet(address)":"deaa59df","transferOwnership(address)":"f2fde38b","unpause()":"3f4ba83a","wallet()":"521eb273"},"id":33}